{
  "contractName": "SupplyChain",
  "abi": [
    {
      "inputs": [],
      "payable": true,
      "stateMutability": "payable",
      "type": "constructor"
    },
    {
      "anonymous": false,
      "inputs": [
        {
          "indexed": true,
          "internalType": "address",
          "name": "account",
          "type": "address"
        }
      ],
      "name": "ConsumerAdded",
      "type": "event"
    },
    {
      "anonymous": false,
      "inputs": [
        {
          "indexed": true,
          "internalType": "address",
          "name": "account",
          "type": "address"
        }
      ],
      "name": "ConsumerRemoved",
      "type": "event"
    },
    {
      "anonymous": false,
      "inputs": [
        {
          "indexed": true,
          "internalType": "address",
          "name": "account",
          "type": "address"
        }
      ],
      "name": "DistributorAdded",
      "type": "event"
    },
    {
      "anonymous": false,
      "inputs": [
        {
          "indexed": true,
          "internalType": "address",
          "name": "account",
          "type": "address"
        }
      ],
      "name": "DistributorRemoved",
      "type": "event"
    },
    {
      "anonymous": false,
      "inputs": [
        {
          "indexed": true,
          "internalType": "address",
          "name": "account",
          "type": "address"
        }
      ],
      "name": "FarmerAdded",
      "type": "event"
    },
    {
      "anonymous": false,
      "inputs": [
        {
          "indexed": true,
          "internalType": "address",
          "name": "account",
          "type": "address"
        }
      ],
      "name": "FarmerRemoved",
      "type": "event"
    },
    {
      "anonymous": false,
      "inputs": [
        {
          "indexed": false,
          "internalType": "uint256",
          "name": "sku",
          "type": "uint256"
        }
      ],
      "name": "ForSale",
      "type": "event"
    },
    {
      "anonymous": false,
      "inputs": [
        {
          "indexed": false,
          "internalType": "uint256",
          "name": "sku",
          "type": "uint256"
        }
      ],
      "name": "Harvested",
      "type": "event"
    },
    {
      "anonymous": false,
      "inputs": [
        {
          "indexed": false,
          "internalType": "uint256",
          "name": "sku",
          "type": "uint256"
        }
      ],
      "name": "Packed",
      "type": "event"
    },
    {
      "anonymous": false,
      "inputs": [
        {
          "indexed": false,
          "internalType": "uint256",
          "name": "sku",
          "type": "uint256"
        }
      ],
      "name": "Processed",
      "type": "event"
    },
    {
      "anonymous": false,
      "inputs": [
        {
          "indexed": false,
          "internalType": "uint256",
          "name": "sku",
          "type": "uint256"
        }
      ],
      "name": "Purchased",
      "type": "event"
    },
    {
      "anonymous": false,
      "inputs": [
        {
          "indexed": false,
          "internalType": "uint256",
          "name": "sku",
          "type": "uint256"
        }
      ],
      "name": "Received",
      "type": "event"
    },
    {
      "anonymous": false,
      "inputs": [
        {
          "indexed": true,
          "internalType": "address",
          "name": "account",
          "type": "address"
        }
      ],
      "name": "RetailerAdded",
      "type": "event"
    },
    {
      "anonymous": false,
      "inputs": [
        {
          "indexed": true,
          "internalType": "address",
          "name": "account",
          "type": "address"
        }
      ],
      "name": "RetailerRemoved",
      "type": "event"
    },
    {
      "anonymous": false,
      "inputs": [
        {
          "indexed": false,
          "internalType": "uint256",
          "name": "sku",
          "type": "uint256"
        }
      ],
      "name": "Shipped",
      "type": "event"
    },
    {
      "anonymous": false,
      "inputs": [
        {
          "indexed": false,
          "internalType": "uint256",
          "name": "sku",
          "type": "uint256"
        }
      ],
      "name": "Sold",
      "type": "event"
    },
    {
      "anonymous": false,
      "inputs": [
        {
          "indexed": true,
          "internalType": "address",
          "name": "oldOwner",
          "type": "address"
        },
        {
          "indexed": true,
          "internalType": "address",
          "name": "newOwner",
          "type": "address"
        }
      ],
      "name": "TransferOwnership",
      "type": "event"
    },
    {
      "constant": false,
      "inputs": [
        {
          "internalType": "address",
          "name": "account",
          "type": "address"
        }
      ],
      "name": "addConsumer",
      "outputs": [],
      "payable": false,
      "stateMutability": "nonpayable",
      "type": "function"
    },
    {
      "constant": false,
      "inputs": [
        {
          "internalType": "address",
          "name": "account",
          "type": "address"
        }
      ],
      "name": "addDistributor",
      "outputs": [],
      "payable": false,
      "stateMutability": "nonpayable",
      "type": "function"
    },
    {
      "constant": false,
      "inputs": [
        {
          "internalType": "address",
          "name": "account",
          "type": "address"
        }
      ],
      "name": "addFarmer",
      "outputs": [],
      "payable": false,
      "stateMutability": "nonpayable",
      "type": "function"
    },
    {
      "constant": false,
      "inputs": [
        {
          "internalType": "address",
          "name": "account",
          "type": "address"
        }
      ],
      "name": "addRetailer",
      "outputs": [],
      "payable": false,
      "stateMutability": "nonpayable",
      "type": "function"
    },
    {
      "constant": true,
      "inputs": [
        {
          "internalType": "address",
          "name": "account",
          "type": "address"
        }
      ],
      "name": "isConsumer",
      "outputs": [
        {
          "internalType": "bool",
          "name": "",
          "type": "bool"
        }
      ],
      "payable": false,
      "stateMutability": "view",
      "type": "function"
    },
    {
      "constant": true,
      "inputs": [
        {
          "internalType": "address",
          "name": "account",
          "type": "address"
        }
      ],
      "name": "isDistributor",
      "outputs": [
        {
          "internalType": "bool",
          "name": "",
          "type": "bool"
        }
      ],
      "payable": false,
      "stateMutability": "view",
      "type": "function"
    },
    {
      "constant": true,
      "inputs": [
        {
          "internalType": "address",
          "name": "account",
          "type": "address"
        }
      ],
      "name": "isFarmer",
      "outputs": [
        {
          "internalType": "bool",
          "name": "",
          "type": "bool"
        }
      ],
      "payable": false,
      "stateMutability": "view",
      "type": "function"
    },
    {
      "constant": true,
      "inputs": [],
      "name": "isOwner",
      "outputs": [
        {
          "internalType": "bool",
          "name": "",
          "type": "bool"
        }
      ],
      "payable": false,
      "stateMutability": "view",
      "type": "function"
    },
    {
      "constant": true,
      "inputs": [
        {
          "internalType": "address",
          "name": "account",
          "type": "address"
        }
      ],
      "name": "isRetailer",
      "outputs": [
        {
          "internalType": "bool",
          "name": "",
          "type": "bool"
        }
      ],
      "payable": false,
      "stateMutability": "view",
      "type": "function"
    },
    {
      "constant": false,
      "inputs": [],
      "name": "kill",
      "outputs": [],
      "payable": false,
      "stateMutability": "nonpayable",
      "type": "function"
    },
    {
      "constant": true,
      "inputs": [],
      "name": "owner",
      "outputs": [
        {
          "internalType": "address",
          "name": "",
          "type": "address"
        }
      ],
      "payable": false,
      "stateMutability": "view",
      "type": "function"
    },
    {
      "constant": false,
      "inputs": [],
      "name": "renounceConsumer",
      "outputs": [],
      "payable": false,
      "stateMutability": "nonpayable",
      "type": "function"
    },
    {
      "constant": false,
      "inputs": [],
      "name": "renounceDistributor",
      "outputs": [],
      "payable": false,
      "stateMutability": "nonpayable",
      "type": "function"
    },
    {
      "constant": false,
      "inputs": [],
      "name": "renounceFarmer",
      "outputs": [],
      "payable": false,
      "stateMutability": "nonpayable",
      "type": "function"
    },
    {
      "constant": false,
      "inputs": [],
      "name": "renounceOwnership",
      "outputs": [],
      "payable": false,
      "stateMutability": "nonpayable",
      "type": "function"
    },
    {
      "constant": false,
      "inputs": [],
      "name": "renounceRetailer",
      "outputs": [],
      "payable": false,
      "stateMutability": "nonpayable",
      "type": "function"
    },
    {
      "constant": false,
      "inputs": [
        {
          "internalType": "address payable",
          "name": "newOwner",
          "type": "address"
        }
      ],
      "name": "transferOwnership",
      "outputs": [],
      "payable": false,
      "stateMutability": "nonpayable",
      "type": "function"
    },
    {
      "constant": false,
      "inputs": [
        {
          "internalType": "uint256",
          "name": "_sku",
          "type": "uint256"
        },
        {
          "internalType": "string",
          "name": "_notes",
          "type": "string"
        }
      ],
      "name": "logItemTransaction",
      "outputs": [],
      "payable": false,
      "stateMutability": "nonpayable",
      "type": "function"
    },
    {
      "constant": false,
      "inputs": [
        {
          "internalType": "uint256",
          "name": "_upc",
          "type": "uint256"
        },
        {
          "internalType": "address payable",
          "name": "_originFarmerID",
          "type": "address"
        },
        {
          "internalType": "string",
          "name": "_originFarmName",
          "type": "string"
        },
        {
          "internalType": "string",
          "name": "_originFarmInformation",
          "type": "string"
        },
        {
          "internalType": "string",
          "name": "_originFarmLatitude",
          "type": "string"
        },
        {
          "internalType": "string",
          "name": "_originFarmLongitude",
          "type": "string"
        },
        {
          "internalType": "string",
          "name": "_productNotes",
          "type": "string"
        }
      ],
      "name": "harvestItem",
      "outputs": [
        {
          "internalType": "uint256",
          "name": "",
          "type": "uint256"
        }
      ],
      "payable": false,
      "stateMutability": "nonpayable",
      "type": "function"
    },
    {
      "constant": false,
      "inputs": [
        {
          "internalType": "uint256",
          "name": "_sku",
          "type": "uint256"
        }
      ],
      "name": "processItem",
      "outputs": [],
      "payable": false,
      "stateMutability": "nonpayable",
      "type": "function"
    },
    {
      "constant": false,
      "inputs": [
        {
          "internalType": "uint256",
          "name": "_sku",
          "type": "uint256"
        }
      ],
      "name": "packItem",
      "outputs": [],
      "payable": false,
      "stateMutability": "nonpayable",
      "type": "function"
    },
    {
      "constant": false,
      "inputs": [
        {
          "internalType": "uint256",
          "name": "_sku",
          "type": "uint256"
        },
        {
          "internalType": "uint256",
          "name": "_price",
          "type": "uint256"
        }
      ],
      "name": "sellItem",
      "outputs": [],
      "payable": false,
      "stateMutability": "nonpayable",
      "type": "function"
    },
    {
      "constant": false,
      "inputs": [
        {
          "internalType": "uint256",
          "name": "_sku",
          "type": "uint256"
        }
      ],
      "name": "buyItem",
      "outputs": [],
      "payable": true,
      "stateMutability": "payable",
      "type": "function"
    },
    {
      "constant": false,
      "inputs": [
        {
          "internalType": "uint256",
          "name": "_sku",
          "type": "uint256"
        }
      ],
      "name": "shipItem",
      "outputs": [],
      "payable": false,
      "stateMutability": "nonpayable",
      "type": "function"
    },
    {
      "constant": false,
      "inputs": [
        {
          "internalType": "uint256",
          "name": "_sku",
          "type": "uint256"
        }
      ],
      "name": "receiveItem",
      "outputs": [],
      "payable": false,
      "stateMutability": "nonpayable",
      "type": "function"
    },
    {
      "constant": false,
      "inputs": [
        {
          "internalType": "uint256",
          "name": "_sku",
          "type": "uint256"
        }
      ],
      "name": "purchaseItem",
      "outputs": [],
      "payable": true,
      "stateMutability": "payable",
      "type": "function"
    },
    {
      "constant": true,
      "inputs": [
        {
          "internalType": "uint256",
          "name": "_sku",
          "type": "uint256"
        }
      ],
      "name": "fetchItemBufferOne",
      "outputs": [
        {
          "internalType": "uint256",
          "name": "itemSKU",
          "type": "uint256"
        },
        {
          "internalType": "uint256",
          "name": "itemUPC",
          "type": "uint256"
        },
        {
          "internalType": "address",
          "name": "ownerID",
          "type": "address"
        },
        {
          "internalType": "address",
          "name": "originFarmerID",
          "type": "address"
        },
        {
          "internalType": "string",
          "name": "originFarmName",
          "type": "string"
        },
        {
          "internalType": "string",
          "name": "originFarmInformation",
          "type": "string"
        },
        {
          "internalType": "string",
          "name": "originFarmLatitude",
          "type": "string"
        },
        {
          "internalType": "string",
          "name": "originFarmLongitude",
          "type": "string"
        }
      ],
      "payable": false,
      "stateMutability": "view",
      "type": "function"
    },
    {
      "constant": true,
      "inputs": [
        {
          "internalType": "uint256",
          "name": "_sku",
          "type": "uint256"
        }
      ],
      "name": "fetchItemBufferTwo",
      "outputs": [
        {
          "internalType": "uint256",
          "name": "itemSKU",
          "type": "uint256"
        },
        {
          "internalType": "uint256",
          "name": "itemUPC",
          "type": "uint256"
        },
        {
          "internalType": "uint256",
          "name": "productID",
          "type": "uint256"
        },
        {
          "internalType": "string",
          "name": "productNotes",
          "type": "string"
        },
        {
          "internalType": "uint256",
          "name": "productPrice",
          "type": "uint256"
        },
        {
          "internalType": "uint256",
          "name": "itemState",
          "type": "uint256"
        },
        {
          "internalType": "address",
          "name": "distributorID",
          "type": "address"
        },
        {
          "internalType": "address",
          "name": "retailerID",
          "type": "address"
        },
        {
          "internalType": "address",
          "name": "consumerID",
          "type": "address"
        }
      ],
      "payable": false,
      "stateMutability": "view",
      "type": "function"
    },
    {
      "constant": true,
      "inputs": [],
      "name": "getRoles",
      "outputs": [
        {
          "internalType": "bool",
          "name": "hasFarmerRole",
          "type": "bool"
        },
        {
          "internalType": "bool",
          "name": "hasDistributorRole",
          "type": "bool"
        },
        {
          "internalType": "bool",
          "name": "hasRetailerRole",
          "type": "bool"
        },
        {
          "internalType": "bool",
          "name": "hasConsumerRole",
          "type": "bool"
        }
      ],
      "payable": false,
      "stateMutability": "view",
      "type": "function"
    }
  ],
  "bytecode": "0x6080604052336000806101000a81548173ffffffffffffffffffffffffffffffffffffffff021916908373ffffffffffffffffffffffffffffffffffffffff1602179055506000809054906101000a900473ffffffffffffffffffffffffffffffffffffffff1673ffffffffffffffffffffffffffffffffffffffff16600073ffffffffffffffffffffffffffffffffffffffff167f5c486528ec3e3f0ea91181cff8116f02bfa350e03b8b6f12e00765adbb5af85c60405160405180910390a3620000d1336200011260201b60201c565b620000e2336200017360201b60201c565b620000f333620001d460201b60201c565b62000104336200023560201b60201c565b6001600681905550620003df565b6200012d8160016200029660201b6200346b1790919060201c565b8073ffffffffffffffffffffffffffffffffffffffff167f2e0ded4123377a3c2bc9a26f1717655a129e2f20752924d42e730ec89c83dbd060405160405180910390a250565b6200018e8160026200029660201b6200346b1790919060201c565b8073ffffffffffffffffffffffffffffffffffffffff167fddbf200aa634dc3fb81cfd68583dd1040d1c751d335e1d86b631bde3e977fea860405160405180910390a250565b620001ef8160036200029660201b6200346b1790919060201c565b8073ffffffffffffffffffffffffffffffffffffffff167f71ae26cad02663e3d92efd6ec56031a80d74a20c0ab4183faa8bf262261c9baa60405160405180910390a250565b620002508160046200029660201b6200346b1790919060201c565b8073ffffffffffffffffffffffffffffffffffffffff167f28b26e7a3d20aedbc5f8f2ebf7da671c0491723a2b78f47a097b0e46dee0714260405160405180910390a250565b600073ffffffffffffffffffffffffffffffffffffffff168173ffffffffffffffffffffffffffffffffffffffff161415620002d157600080fd5b620002e382826200034c60201b60201c565b15620002ee57600080fd5b60018260000160008373ffffffffffffffffffffffffffffffffffffffff1673ffffffffffffffffffffffffffffffffffffffff16815260200190815260200160002060006101000a81548160ff0219169083151502179055505050565b60008073ffffffffffffffffffffffffffffffffffffffff168273ffffffffffffffffffffffffffffffffffffffff1614156200038857600080fd5b8260000160008373ffffffffffffffffffffffffffffffffffffffff1673ffffffffffffffffffffffffffffffffffffffff16815260200190815260200160002060009054906101000a900460ff16905092915050565b613a5680620003ef6000396000f3fe6080604052600436106101c25760003560e01c806380fc0ce4116100f7578063b942906911610095578063e7fb74c711610064578063e7fb74c714610f08578063f2fde38b14610f36578063f30fc48014610f87578063f61c899a14610fc2576101c2565b8063b942906914610af8578063bdd8a6a814610b61578063d38ea5bf14610ec3578063db0e6a2f14610ef1576101c2565b80638ec4f505116100d15780638ec4f505146109d45780638f0c86fa14610a255780638f32d59b14610a8e578063a26be99914610abd576101c2565b806380fc0ce4146108fd578063834ff739146109145780638da5cb5b1461097d576101c2565b8063644241db11610164578063715018a61161013e578063715018a6146105d85780637250e224146105ef57806377c459131461064057806380c3f96d146108ac576101c2565b8063644241db1461040157806366225ff9146104185780637106139814610588576101c2565b806341c0e1b5116101a057806341c0e1b51461032f57806349dae766146103465780635da09b881461038157806361e6982d146103ea576101c2565b8063112940f9146101c757806313638fc3146102185780632d923561146102ea575b600080fd5b3480156101d357600080fd5b50610216600480360360208110156101ea57600080fd5b81019080803573ffffffffffffffffffffffffffffffffffffffff169060200190929190505050610ffd565b005b34801561022457600080fd5b506102e86004803603604081101561023b57600080fd5b81019080803590602001909291908035906020019064010000000081111561026257600080fd5b82018360208201111561027457600080fd5b8035906020019184600183028401116401000000008311171561029657600080fd5b91908080601f016020809104026020016040519081016040528093929190818152602001838380828437600081840152601f19601f820116905080830192505050505050509192919290505050611084565b005b3480156102f657600080fd5b5061032d6004803603604081101561030d57600080fd5b8101908080359060200190929190803590602001909291905050506110de565b005b34801561033b57600080fd5b506103446112b0565b005b34801561035257600080fd5b5061037f6004803603602081101561036957600080fd5b8101908080359060200190929190505050611341565b005b34801561038d57600080fd5b506103d0600480360360208110156103a457600080fd5b81019080803573ffffffffffffffffffffffffffffffffffffffff169060200190929190505050611509565b604051808215151515815260200191505060405180910390f35b3480156103f657600080fd5b506103ff611526565b005b34801561040d57600080fd5b50610416611531565b005b34801561042457600080fd5b506104516004803603602081101561043b57600080fd5b810190808035906020019092919050505061153c565b604051808a8152602001898152602001888152602001806020018781526020018681526020018573ffffffffffffffffffffffffffffffffffffffff1673ffffffffffffffffffffffffffffffffffffffff1681526020018473ffffffffffffffffffffffffffffffffffffffff1673ffffffffffffffffffffffffffffffffffffffff1681526020018373ffffffffffffffffffffffffffffffffffffffff1673ffffffffffffffffffffffffffffffffffffffff168152602001828103825288818151815260200191508051906020019080838360005b8381101561054557808201518184015260208101905061052a565b50505050905090810190601f1680156105725780820380516001836020036101000a031916815260200191505b509a505050505050505050505060405180910390f35b34801561059457600080fd5b5061059d611b1b565b604051808515151515815260200184151515158152602001831515151581526020018215151515815260200194505050505060405180910390f35b3480156105e457600080fd5b506105ed611b6f565b005b3480156105fb57600080fd5b5061063e6004803603602081101561061257600080fd5b81019080803573ffffffffffffffffffffffffffffffffffffffff169060200190929190505050611c3f565b005b34801561064c57600080fd5b506106796004803603602081101561066357600080fd5b8101908080359060200190929190505050611c5d565b604051808981526020018881526020018773ffffffffffffffffffffffffffffffffffffffff1673ffffffffffffffffffffffffffffffffffffffff1681526020018673ffffffffffffffffffffffffffffffffffffffff1673ffffffffffffffffffffffffffffffffffffffff16815260200180602001806020018060200180602001858103855289818151815260200191508051906020019080838360005b8381101561073557808201518184015260208101905061071a565b50505050905090810190601f1680156107625780820380516001836020036101000a031916815260200191505b50858103845288818151815260200191508051906020019080838360005b8381101561079b578082015181840152602081019050610780565b50505050905090810190601f1680156107c85780820380516001836020036101000a031916815260200191505b50858103835287818151815260200191508051906020019080838360005b838110156108015780820151818401526020810190506107e6565b50505050905090810190601f16801561082e5780820380516001836020036101000a031916815260200191505b50858103825286818151815260200191508051906020019080838360005b8381101561086757808201518184015260208101905061084c565b50505050905090810190601f1680156108945780820380516001836020036101000a031916815260200191505b509c5050505050505050505050505060405180910390f35b3480156108b857600080fd5b506108fb600480360360208110156108cf57600080fd5b81019080803573ffffffffffffffffffffffffffffffffffffffff16906020019092919050505061221b565b005b34801561090957600080fd5b50610912612239565b005b34801561092057600080fd5b506109636004803603602081101561093757600080fd5b81019080803573ffffffffffffffffffffffffffffffffffffffff169060200190929190505050612244565b604051808215151515815260200191505060405180910390f35b34801561098957600080fd5b50610992612261565b604051808273ffffffffffffffffffffffffffffffffffffffff1673ffffffffffffffffffffffffffffffffffffffff16815260200191505060405180910390f35b3480156109e057600080fd5b50610a23600480360360208110156109f757600080fd5b81019080803573ffffffffffffffffffffffffffffffffffffffff16906020019092919050505061228a565b005b348015610a3157600080fd5b50610a7460048036036020811015610a4857600080fd5b81019080803573ffffffffffffffffffffffffffffffffffffffff1690602001909291905050506122b3565b604051808215151515815260200191505060405180910390f35b348015610a9a57600080fd5b50610aa36122d0565b604051808215151515815260200191505060405180910390f35b348015610ac957600080fd5b50610af660048036036020811015610ae057600080fd5b8101908080359060200190929190505050612327565b005b348015610b0457600080fd5b50610b4760048036036020811015610b1b57600080fd5b81019080803573ffffffffffffffffffffffffffffffffffffffff1690602001909291905050506124cd565b604051808215151515815260200191505060405180910390f35b348015610b6d57600080fd5b50610ead600480360360e0811015610b8457600080fd5b8101908080359060200190929190803573ffffffffffffffffffffffffffffffffffffffff16906020019092919080359060200190640100000000811115610bcb57600080fd5b820183602082011115610bdd57600080fd5b80359060200191846001830284011164010000000083111715610bff57600080fd5b91908080601f016020809104026020016040519081016040528093929190818152602001838380828437600081840152601f19601f82011690508083019250505050505050919291929080359060200190640100000000811115610c6257600080fd5b820183602082011115610c7457600080fd5b80359060200191846001830284011164010000000083111715610c9657600080fd5b91908080601f016020809104026020016040519081016040528093929190818152602001838380828437600081840152601f19601f82011690508083019250505050505050919291929080359060200190640100000000811115610cf957600080fd5b820183602082011115610d0b57600080fd5b80359060200191846001830284011164010000000083111715610d2d57600080fd5b91908080601f016020809104026020016040519081016040528093929190818152602001838380828437600081840152601f19601f82011690508083019250505050505050919291929080359060200190640100000000811115610d9057600080fd5b820183602082011115610da257600080fd5b80359060200191846001830284011164010000000083111715610dc457600080fd5b91908080601f016020809104026020016040519081016040528093929190818152602001838380828437600081840152601f19601f82011690508083019250505050505050919291929080359060200190640100000000811115610e2757600080fd5b820183602082011115610e3957600080fd5b80359060200191846001830284011164010000000083111715610e5b57600080fd5b91908080601f016020809104026020016040519081016040528093929190818152602001838380828437600081840152601f19601f8201169050808301925050505050505091929192905050506124ea565b6040518082815260200191505060405180910390f35b610eef60048036036020811015610ed957600080fd5b810190808035906020019092919050505061294c565b005b348015610efd57600080fd5b50610f06612bed565b005b610f3460048036036020811015610f1e57600080fd5b8101908080359060200190929190505050612bf8565b005b348015610f4257600080fd5b50610f8560048036036020811015610f5957600080fd5b81019080803573ffffffffffffffffffffffffffffffffffffffff169060200190929190505050612e9d565b005b348015610f9357600080fd5b50610fc060048036036020811015610faa57600080fd5b8101908080359060200190929190505050612eba565b005b348015610fce57600080fd5b50610ffb60048036036020811015610fe557600080fd5b8101908080359060200190929190505050613082565b005b61100633612244565b611078576040517f08c379a00000000000000000000000000000000000000000000000000000000081526004018080602001828103825260178152602001807f4d757374206861766520726f6c6520436f6e73756d657200000000000000000081525060200191505060405180910390fd5b611081816131bd565b50565b6000600860008481526020019081526020016000209050808290806001815401808255809150509060018203906000526020600020016000909192909190915090805190602001906110d7929190613714565b5050505050565b81600260078111156110ec57fe5b60076000838152602001908152602001600020600b0160009054906101000a900460ff16600781111561111b57fe5b14611171576040517f08c379a00000000000000000000000000000000000000000000000000000000081526004018080602001828103825260228152602001806139296022913960400191505060405180910390fd5b823373ffffffffffffffffffffffffffffffffffffffff166007600083815260200190815260200160002060030160009054906101000a900473ffffffffffffffffffffffffffffffffffffffff1673ffffffffffffffffffffffffffffffffffffffff161461122c576040517f08c379a00000000000000000000000000000000000000000000000000000000081526004018080602001828103825260238152602001806139dc6023913960400191505060405180910390fd5b6000600760008681526020019081526020016000209050600381600b0160006101000a81548160ff0219169083600781111561126457fe5b02179055508381600a01819055507fa96ae0fc3224ebd79eebfe54bd130cc9cb94416cddd1f2386115e00b72532468856040518082815260200191505060405180910390a15050505050565b6000809054906101000a900473ffffffffffffffffffffffffffffffffffffffff1673ffffffffffffffffffffffffffffffffffffffff163373ffffffffffffffffffffffffffffffffffffffff16141561133f576000809054906101000a900473ffffffffffffffffffffffffffffffffffffffff1673ffffffffffffffffffffffffffffffffffffffff16ff5b565b806000600781111561134f57fe5b60076000838152602001908152602001600020600b0160009054906101000a900460ff16600781111561137e57fe5b146113d4576040517f08c379a000000000000000000000000000000000000000000000000000000000815260040180806020018281038252602581526020018061394b6025913960400191505060405180910390fd5b813373ffffffffffffffffffffffffffffffffffffffff166007600083815260200190815260200160002060030160009054906101000a900473ffffffffffffffffffffffffffffffffffffffff1673ffffffffffffffffffffffffffffffffffffffff161461148f576040517f08c379a00000000000000000000000000000000000000000000000000000000081526004018080602001828103825260238152602001806139dc6023913960400191505060405180910390fd5b6000600760008581526020019081526020016000209050600181600b0160006101000a81548160ff021916908360078111156114c757fe5b02179055507f5afe3b1bf87069693c075da5c22a98d63d1aef98a30dbbe538d0781a98b77ee5846040518082815260200191505060405180910390a150505050565b600061151f82600361321790919063ffffffff16565b9050919050565b61152f336132a9565b565b61153a33613303565b565b600080600060606000806000806000611553613794565b600760008c8152602001908152602001600020604051806101e001604052908160008201548152602001600182015481526020016002820160009054906101000a900473ffffffffffffffffffffffffffffffffffffffff1673ffffffffffffffffffffffffffffffffffffffff1673ffffffffffffffffffffffffffffffffffffffff1681526020016003820160009054906101000a900473ffffffffffffffffffffffffffffffffffffffff1673ffffffffffffffffffffffffffffffffffffffff1673ffffffffffffffffffffffffffffffffffffffff168152602001600482018054600181600116156101000203166002900480601f0160208091040260200160405190810160405280929190818152602001828054600181600116156101000203166002900480156116cb5780601f106116a0576101008083540402835291602001916116cb565b820191906000526020600020905b8154815290600101906020018083116116ae57829003601f168201915b50505050508152602001600582018054600181600116156101000203166002900480601f01602080910402602001604051908101604052809291908181526020018280546001816001161561010002031660029004801561176d5780601f106117425761010080835404028352916020019161176d565b820191906000526020600020905b81548152906001019060200180831161175057829003601f168201915b50505050508152602001600682018054600181600116156101000203166002900480601f01602080910402602001604051908101604052809291908181526020018280546001816001161561010002031660029004801561180f5780601f106117e45761010080835404028352916020019161180f565b820191906000526020600020905b8154815290600101906020018083116117f257829003601f168201915b50505050508152602001600782018054600181600116156101000203166002900480601f0160208091040260200160405190810160405280929190818152602001828054600181600116156101000203166002900480156118b15780601f10611886576101008083540402835291602001916118b1565b820191906000526020600020905b81548152906001019060200180831161189457829003601f168201915b5050505050815260200160088201548152602001600982018054600181600116156101000203166002900480601f01602080910402602001604051908101604052809291908181526020018280546001816001161561010002031660029004801561195d5780601f106119325761010080835404028352916020019161195d565b820191906000526020600020905b81548152906001019060200180831161194057829003601f168201915b50505050508152602001600a8201548152602001600b820160009054906101000a900460ff16600781111561198e57fe5b600781111561199957fe5b8152602001600b820160019054906101000a900473ffffffffffffffffffffffffffffffffffffffff1673ffffffffffffffffffffffffffffffffffffffff1673ffffffffffffffffffffffffffffffffffffffff168152602001600c820160009054906101000a900473ffffffffffffffffffffffffffffffffffffffff1673ffffffffffffffffffffffffffffffffffffffff1673ffffffffffffffffffffffffffffffffffffffff168152602001600d820160009054906101000a900473ffffffffffffffffffffffffffffffffffffffff1673ffffffffffffffffffffffffffffffffffffffff1673ffffffffffffffffffffffffffffffffffffffff1681525050905080600001519950806020015198508061010001519750806101200151965080610140015195508061016001516007811115611ad857fe5b94508061018001519350806101a001519250806101c001519150898989898989898989995099509950995099509950995099509950509193959799909294969850565b60008060008060011515611b2e336124cd565b151514935060011515611b40336122b3565b151514925060011515611b5233611509565b151514915060011515611b6433612244565b151514905090919293565b611b776122d0565b611b8057600080fd5b600073ffffffffffffffffffffffffffffffffffffffff166000809054906101000a900473ffffffffffffffffffffffffffffffffffffffff1673ffffffffffffffffffffffffffffffffffffffff167f5c486528ec3e3f0ea91181cff8116f02bfa350e03b8b6f12e00765adbb5af85c60405160405180910390a360008060006101000a81548173ffffffffffffffffffffffffffffffffffffffff021916908373ffffffffffffffffffffffffffffffffffffffff160217905550565b611c48336122b3565b611c5157600080fd5b611c5a8161335d565b50565b600080600080606080606080611c71613794565b600760008b8152602001908152602001600020604051806101e001604052908160008201548152602001600182015481526020016002820160009054906101000a900473ffffffffffffffffffffffffffffffffffffffff1673ffffffffffffffffffffffffffffffffffffffff1673ffffffffffffffffffffffffffffffffffffffff1681526020016003820160009054906101000a900473ffffffffffffffffffffffffffffffffffffffff1673ffffffffffffffffffffffffffffffffffffffff1673ffffffffffffffffffffffffffffffffffffffff168152602001600482018054600181600116156101000203166002900480601f016020809104026020016040519081016040528092919081815260200182805460018160011615610100020316600290048015611de95780601f10611dbe57610100808354040283529160200191611de9565b820191906000526020600020905b815481529060010190602001808311611dcc57829003601f168201915b50505050508152602001600582018054600181600116156101000203166002900480601f016020809104026020016040519081016040528092919081815260200182805460018160011615610100020316600290048015611e8b5780601f10611e6057610100808354040283529160200191611e8b565b820191906000526020600020905b815481529060010190602001808311611e6e57829003601f168201915b50505050508152602001600682018054600181600116156101000203166002900480601f016020809104026020016040519081016040528092919081815260200182805460018160011615610100020316600290048015611f2d5780601f10611f0257610100808354040283529160200191611f2d565b820191906000526020600020905b815481529060010190602001808311611f1057829003601f168201915b50505050508152602001600782018054600181600116156101000203166002900480601f016020809104026020016040519081016040528092919081815260200182805460018160011615610100020316600290048015611fcf5780601f10611fa457610100808354040283529160200191611fcf565b820191906000526020600020905b815481529060010190602001808311611fb257829003601f168201915b5050505050815260200160088201548152602001600982018054600181600116156101000203166002900480601f01602080910402602001604051908101604052809291908181526020018280546001816001161561010002031660029004801561207b5780601f106120505761010080835404028352916020019161207b565b820191906000526020600020905b81548152906001019060200180831161205e57829003601f168201915b50505050508152602001600a8201548152602001600b820160009054906101000a900460ff1660078111156120ac57fe5b60078111156120b757fe5b8152602001600b820160019054906101000a900473ffffffffffffffffffffffffffffffffffffffff1673ffffffffffffffffffffffffffffffffffffffff1673ffffffffffffffffffffffffffffffffffffffff168152602001600c820160009054906101000a900473ffffffffffffffffffffffffffffffffffffffff1673ffffffffffffffffffffffffffffffffffffffff1673ffffffffffffffffffffffffffffffffffffffff168152602001600d820160009054906101000a900473ffffffffffffffffffffffffffffffffffffffff1673ffffffffffffffffffffffffffffffffffffffff1673ffffffffffffffffffffffffffffffffffffffff1681525050905080600001519850806020015197508060400151965080606001519550806080015194508060a0015193508060c0015192508060e00151915088888888888888889850985098509850985098509850985050919395975091939597565b612224336124cd565b61222d57600080fd5b612236816133b7565b50565b61224233613411565b565b600061225a82600461321790919063ffffffff16565b9050919050565b60008060009054906101000a900473ffffffffffffffffffffffffffffffffffffffff16905090565b61229333611509565b61229c57600080fd5b6122b081600361346b90919063ffffffff16565b50565b60006122c982600261321790919063ffffffff16565b9050919050565b60008060009054906101000a900473ffffffffffffffffffffffffffffffffffffffff1673ffffffffffffffffffffffffffffffffffffffff163373ffffffffffffffffffffffffffffffffffffffff1614905090565b61233033611509565b61233957600080fd5b806005600781111561234757fe5b60076000838152602001908152602001600020600b0160009054906101000a900460ff16600781111561237657fe5b146123cc576040517f08c379a00000000000000000000000000000000000000000000000000000000081526004018080602001828103825260238152602001806139b96023913960400191505060405180910390fd5b6000600760008481526020019081526020016000209050600681600b0160006101000a81548160ff0219169083600781111561240457fe5b0217905550338160020160006101000a81548173ffffffffffffffffffffffffffffffffffffffff021916908373ffffffffffffffffffffffffffffffffffffffff1602179055503381600c0160006101000a81548173ffffffffffffffffffffffffffffffffffffffff021916908373ffffffffffffffffffffffffffffffffffffffff1602179055507fa8142743f8f70a4c26f3691cf4ed59718381fb2f18070ec52be1f1022d8555576006546040518082815260200191505060405180910390a1505050565b60006124e382600161321790919063ffffffff16565b9050919050565b60006124f5336124cd565b6124fe57600080fd5b3373ffffffffffffffffffffffffffffffffffffffff168773ffffffffffffffffffffffffffffffffffffffff161461259f576040517f08c379a00000000000000000000000000000000000000000000000000000000081526004018080602001828103825260158152602001807f53656e646572206d757374206265206661726d6572000000000000000000000081525060200191505060405180910390fd5b6125a7613794565b604051806101e0016040528060065481526020018a81526020018973ffffffffffffffffffffffffffffffffffffffff1681526020018973ffffffffffffffffffffffffffffffffffffffff1681526020018881526020018781526020018681526020018581526020018a8152602001848152602001600081526020016000600781111561263157fe5b8152602001600073ffffffffffffffffffffffffffffffffffffffff168152602001600073ffffffffffffffffffffffffffffffffffffffff168152602001600073ffffffffffffffffffffffffffffffffffffffff16815250905080600760006006548152602001908152602001600020600082015181600001556020820151816001015560408201518160020160006101000a81548173ffffffffffffffffffffffffffffffffffffffff021916908373ffffffffffffffffffffffffffffffffffffffff16021790555060608201518160030160006101000a81548173ffffffffffffffffffffffffffffffffffffffff021916908373ffffffffffffffffffffffffffffffffffffffff1602179055506080820151816004019080519060200190612761929190613883565b5060a082015181600501908051906020019061277e929190613883565b5060c082015181600601908051906020019061279b929190613883565b5060e08201518160070190805190602001906127b8929190613883565b5061010082015181600801556101208201518160090190805190602001906127e1929190613883565b5061014082015181600a015561016082015181600b0160006101000a81548160ff0219169083600781111561281257fe5b021790555061018082015181600b0160016101000a81548173ffffffffffffffffffffffffffffffffffffffff021916908373ffffffffffffffffffffffffffffffffffffffff1602179055506101a082015181600c0160006101000a81548173ffffffffffffffffffffffffffffffffffffffff021916908373ffffffffffffffffffffffffffffffffffffffff1602179055506101c082015181600d0160006101000a81548173ffffffffffffffffffffffffffffffffffffffff021916908373ffffffffffffffffffffffffffffffffffffffff1602179055509050506001600654016006819055507f8e55ccfc9778ff8eba1646d765cf1982537ce0f9257054a17b48aad74525018381600001516040518082815260200191505060405180910390a18060000151915050979650505050505050565b61295533612244565b6129c7576040517f08c379a00000000000000000000000000000000000000000000000000000000081526004018080602001828103825260178152602001807f4d757374206861766520726f6c6520436f6e73756d657200000000000000000081525060200191505060405180910390fd5b80600660078111156129d557fe5b60076000838152602001908152602001600020600b0160009054906101000a900460ff166007811115612a0457fe5b14612a5a576040517f08c379a00000000000000000000000000000000000000000000000000000000081526004018080602001828103825260248152602001806139706024913960400191505060405180910390fd5b8160076000828152602001908152602001600020600a0154341015612a7e57600080fd5b826000600760008681526020019081526020016000209050600781600b0160006101000a81548160ff02191690836007811115612ab757fe5b0217905550338160020160006101000a81548173ffffffffffffffffffffffffffffffffffffffff021916908373ffffffffffffffffffffffffffffffffffffffff1602179055503381600d0160006101000a81548173ffffffffffffffffffffffffffffffffffffffff021916908373ffffffffffffffffffffffffffffffffffffffff1602179055507f653d56639fee6b566a5c804764e9689de38645f0b733df89a36a1b7b42173dd86006546040518082815260200191505060405180910390a150600060076000838152602001908152602001600020600a01549050600081340390503373ffffffffffffffffffffffffffffffffffffffff166108fc829081150290604051600060405180830381858888f19350505050158015612be4573d6000803e3d6000fd5b50505050505050565b612bf633613517565b565b612c01336122b3565b612c0a57600080fd5b8060036007811115612c1857fe5b60076000838152602001908152602001600020600b0160009054906101000a900460ff166007811115612c4757fe5b14612c9d576040517f08c379a00000000000000000000000000000000000000000000000000000000081526004018080602001828103825260238152602001806139ff6023913960400191505060405180910390fd5b8160076000828152602001908152602001600020600a0154341015612cc157600080fd5b826000600760008681526020019081526020016000209050600481600b0160006101000a81548160ff02191690836007811115612cfa57fe5b0217905550338160020160006101000a81548173ffffffffffffffffffffffffffffffffffffffff021916908373ffffffffffffffffffffffffffffffffffffffff1602179055503381600b0160016101000a81548173ffffffffffffffffffffffffffffffffffffffff021916908373ffffffffffffffffffffffffffffffffffffffff1602179055508060030160009054906101000a900473ffffffffffffffffffffffffffffffffffffffff1673ffffffffffffffffffffffffffffffffffffffff166108fc82600a01549081150290604051600060405180830381858888f19350505050158015612df3573d6000803e3d6000fd5b507f92f64ca637d023f354075a4be751b169c1a8a9ccb6d33cdd0cb3520543995727856040518082815260200191505060405180910390a150600060076000838152602001908152602001600020600a01549050600081340390503373ffffffffffffffffffffffffffffffffffffffff166108fc829081150290604051600060405180830381858888f19350505050158015612e94573d6000803e3d6000fd5b50505050505050565b612ea56122d0565b612eae57600080fd5b612eb781613571565b50565b8060016007811115612ec857fe5b60076000838152602001908152602001600020600b0160009054906101000a900460ff166007811115612ef757fe5b14612f4d576040517f08c379a00000000000000000000000000000000000000000000000000000000081526004018080602001828103825260258152602001806139946025913960400191505060405180910390fd5b813373ffffffffffffffffffffffffffffffffffffffff166007600083815260200190815260200160002060030160009054906101000a900473ffffffffffffffffffffffffffffffffffffffff1673ffffffffffffffffffffffffffffffffffffffff1614613008576040517f08c379a00000000000000000000000000000000000000000000000000000000081526004018080602001828103825260238152602001806139dc6023913960400191505060405180910390fd5b6000600760008581526020019081526020016000209050600281600b0160006101000a81548160ff0219169083600781111561304057fe5b02179055507f9b3b66e2380b690bae22c73ef1428fb0c91e72fe14a4b6defa13035214187aff846040518082815260200191505060405180910390a150505050565b61308b336122b3565b61309457600080fd5b80600460078111156130a257fe5b60076000838152602001908152602001600020600b0160009054906101000a900460ff1660078111156130d157fe5b14613144576040517f08c379a00000000000000000000000000000000000000000000000000000000081526004018080602001828103825260208152602001807f4974656d206e6565647320746f20626520696e2073746174652027536f6c642781525060200191505060405180910390fd5b6000600760008481526020019081526020016000209050600581600b0160006101000a81548160ff0219169083600781111561317c57fe5b02179055507ff00b9a5725b80c54016f42114f6ed7792d22eecb116011c4afac29c57bef6c95836040518082815260200191505060405180910390a1505050565b6131d181600461346b90919063ffffffff16565b8073ffffffffffffffffffffffffffffffffffffffff167f28b26e7a3d20aedbc5f8f2ebf7da671c0491723a2b78f47a097b0e46dee0714260405160405180910390a250565b60008073ffffffffffffffffffffffffffffffffffffffff168273ffffffffffffffffffffffffffffffffffffffff16141561325257600080fd5b8260000160008373ffffffffffffffffffffffffffffffffffffffff1673ffffffffffffffffffffffffffffffffffffffff16815260200190815260200160002060009054906101000a900460ff16905092915050565b6132bd81600461366990919063ffffffff16565b8073ffffffffffffffffffffffffffffffffffffffff167fe3f5ed5f263f1f01764a96edfc7d025f511ec5f7d180e8816908b78bcf74f09860405160405180910390a250565b61331781600261366990919063ffffffff16565b8073ffffffffffffffffffffffffffffffffffffffff167f126174f6cf49c81cdb4a9214c6b8f037bef55b4ec31e4fc776cea2a1c8a88d5960405160405180910390a250565b61337181600261346b90919063ffffffff16565b8073ffffffffffffffffffffffffffffffffffffffff167fddbf200aa634dc3fb81cfd68583dd1040d1c751d335e1d86b631bde3e977fea860405160405180910390a250565b6133cb81600161346b90919063ffffffff16565b8073ffffffffffffffffffffffffffffffffffffffff167f2e0ded4123377a3c2bc9a26f1717655a129e2f20752924d42e730ec89c83dbd060405160405180910390a250565b61342581600161366990919063ffffffff16565b8073ffffffffffffffffffffffffffffffffffffffff167fa5e0f060af304ab17dd418c7927e3da3ae7868189bf387aee09ab179ccc572f260405160405180910390a250565b600073ffffffffffffffffffffffffffffffffffffffff168173ffffffffffffffffffffffffffffffffffffffff1614156134a557600080fd5b6134af8282613217565b156134b957600080fd5b60018260000160008373ffffffffffffffffffffffffffffffffffffffff1673ffffffffffffffffffffffffffffffffffffffff16815260200190815260200160002060006101000a81548160ff0219169083151502179055505050565b61352b81600361366990919063ffffffff16565b8073ffffffffffffffffffffffffffffffffffffffff167fdb7176e79cffef81cb01767dd0447a0b24bb72ca9778d4b245581086b2a7e6db60405160405180910390a250565b600073ffffffffffffffffffffffffffffffffffffffff168173ffffffffffffffffffffffffffffffffffffffff1614156135ab57600080fd5b8073ffffffffffffffffffffffffffffffffffffffff166000809054906101000a900473ffffffffffffffffffffffffffffffffffffffff1673ffffffffffffffffffffffffffffffffffffffff167f5c486528ec3e3f0ea91181cff8116f02bfa350e03b8b6f12e00765adbb5af85c60405160405180910390a3806000806101000a81548173ffffffffffffffffffffffffffffffffffffffff021916908373ffffffffffffffffffffffffffffffffffffffff16021790555050565b600073ffffffffffffffffffffffffffffffffffffffff168173ffffffffffffffffffffffffffffffffffffffff1614156136a357600080fd5b6136ad8282613217565b6136b657600080fd5b60008260000160008373ffffffffffffffffffffffffffffffffffffffff1673ffffffffffffffffffffffffffffffffffffffff16815260200190815260200160002060006101000a81548160ff0219169083151502179055505050565b828054600181600116156101000203166002900490600052602060002090601f016020900481019282601f1061375557805160ff1916838001178555613783565b82800160010185558215613783579182015b82811115613782578251825591602001919060010190613767565b5b5090506137909190613903565b5090565b604051806101e001604052806000815260200160008152602001600073ffffffffffffffffffffffffffffffffffffffff168152602001600073ffffffffffffffffffffffffffffffffffffffff168152602001606081526020016060815260200160608152602001606081526020016000815260200160608152602001600081526020016000600781111561382657fe5b8152602001600073ffffffffffffffffffffffffffffffffffffffff168152602001600073ffffffffffffffffffffffffffffffffffffffff168152602001600073ffffffffffffffffffffffffffffffffffffffff1681525090565b828054600181600116156101000203166002900490600052602060002090601f016020900481019282601f106138c457805160ff19168380011785556138f2565b828001600101855582156138f2579182015b828111156138f15782518255916020019190600101906138d6565b5b5090506138ff9190613903565b5090565b61392591905b80821115613921576000816000905550600101613909565b5090565b9056fe4974656d206e6565647320746f20626520696e20737461746520275061636b6564274974656d206e6565647320746f20626520696e2073746174652027486172766573746564274974656d206e6565647320746f20626520696e20737461746520275265636569766564274974656d206e6565647320746f20626520696e207374617465202750726f636573736564274974656d206e6565647320746f20626520696e2073746174652027536869707065642743616e2062652063616c6c6564206279206f726967696e206661726d6572206f6e6c794974656d206e6565647320746f20626520696e2073746174652027466f7253616c6527a265627a7a723158202b9db63bdddc0023f8e003d1dc3f062222efd4dfa5634fe1902d515d8dc0649464736f6c63430005100032",
  "source": "pragma solidity ^0.5.16;\n\nimport \"../coffeecore/Ownable.sol\";\nimport \"../coffeeaccesscontrol/FarmerRole.sol\";\nimport \"../coffeeaccesscontrol/RetailerRole.sol\";\nimport \"../coffeeaccesscontrol/ConsumerRole.sol\";\nimport \"../coffeeaccesscontrol/DistributorRole.sol\";\n// Define a contract 'Supplychain'\ncontract SupplyChain is Ownable, FarmerRole, DistributorRole, RetailerRole, ConsumerRole {\n\n  // Define a variable called 'upc' for Universal Product Code (UPC)\n  uint  upc;\n\n  // Define a variable called 'sku' for Stock Keeping Unit (SKU)\n  uint  sku;\n\n  // Define a public mapping 'items' that maps the SKU to an Item.\n  mapping (uint => Item) items;\n\n  // Define a public mapping 'itemsHistory' that maps the SKU to an array of TxHash, \n  // that track its journey through the supply chain -- to be sent from DApp.\n  mapping (uint => string[]) itemsHistory;\n\n  // Define enum 'State' with the following values:\n  enum State \n  { \n    Harvested,  // 0\n    Processed,  // 1\n    Packed,     // 2\n    ForSale,    // 3\n    Sold,       // 4\n    Shipped,    // 5\n    Received,   // 6\n    Purchased   // 7\n    }\n\n  State constant defaultState = State.Harvested;\n\n  // Define a struct 'Item' with the following fields:\n  struct Item {\n    uint    sku;  // Stock Keeping Unit (SKU)\n    uint    upc; // Universal Product Code (UPC), generated by the Farmer, goes on the package, can be verified by the Consumer\n    address payable ownerID;  // Metamask-Ethereum address of the current owner as the product moves through 8 stages\n    address payable originFarmerID; // Metamask-Ethereum address of the Farmer\n    string  originFarmName; // Farmer Name\n    string  originFarmInformation;  // Farmer Information\n    string  originFarmLatitude; // Farm Latitude\n    string  originFarmLongitude;  // Farm Longitude\n    uint    productID;  // Product ID potentially a combination of upc + sku\n    string  productNotes; // Product Notes\n    uint    productPrice; // Product Price\n    State   itemState;  // Product State as represented in the enum above\n    address payable distributorID;  // Metamask-Ethereum address of the Distributor\n    address payable retailerID; // Metamask-Ethereum address of the Retailer\n    address payable consumerID; // Metamask-Ethereum address of the Consumer\n  }\n\n  // Define 8 events with the same 8 state values and accept 'upc' as input argument\n  event Harvested(uint sku);\n  event Processed(uint sku);\n  event Packed(uint sku);\n  event ForSale(uint sku);\n  event Sold(uint sku);\n  event Shipped(uint sku);\n  event Received(uint sku);\n  event Purchased(uint sku);\n\n\n  // Define a modifer that verifies the Caller\n  modifier verifyCaller (address _address) {\n    require(msg.sender == _address); \n    _;\n  }\n\n  // Define a modifier that checks if the paid amount is sufficient to cover the price\n  modifier paidEnough(uint _sku) { \n    require(msg.value >= items[_sku].productPrice); \n    _;\n  }\n  \n  // Define a modifier that checks the price and refunds the remaining balance\n  modifier checkValue(uint _sku) {\n    _;\n    uint _price = items[_sku].productPrice;\n    uint amountToReturn = msg.value - _price;\n    msg.sender.transfer(amountToReturn);\n  }\n\n  // Define a modifier that checks if an item.state of a upc is Harvested\n  modifier harvested(uint _sku) {\n    require(items[_sku].itemState == State.Harvested, \"Item needs to be in state 'Harvested'\");\n    _;\n  }\n\n  // Define a modifier that checks if an item.state of a upc is Processed\n  modifier processed(uint _sku) {\n\t\trequire(items[_sku].itemState == State.Processed, \"Item needs to be in state 'Processed'\");\n    _;\n  }\n  \n  // Define a modifier that checks if an item.state of a upc is Packed\n  modifier packed(uint _sku) {\n\t\trequire(items[_sku].itemState == State.Packed, \"Item needs to be in state 'Packed'\");\n    _;\n  }\n\n  // Define a modifier that checks if an item.state of a upc is ForSale\n  modifier forSale(uint _sku) {\n\t\trequire(items[_sku].itemState == State.ForSale, \"Item needs to be in state 'ForSale'\");\n    _;\n  }\n\n  // Define a modifier that checks if an item.state of a upc is Sold\n  modifier sold(uint _sku) {\n\t\trequire(items[_sku].itemState == State.Sold, \"Item needs to be in state 'Sold'\");\n    _;\n  }\n  \n  // Define a modifier that checks if an item.state of a upc is Shipped\n  modifier shipped(uint _sku) {\n\t\trequire(items[_sku].itemState == State.Shipped, \"Item needs to be in state 'Shipped'\");\n    _;\n  }\n\n  // Define a modifier that checks if an item.state of a upc is Received\n  modifier received(uint _sku) {\n\t\trequire(items[_sku].itemState == State.Received, \"Item needs to be in state 'Received'\");\n    _;\n  }\n\n  // Define a modifier that checks if an item.state of a upc is Purchased\n  modifier purchased(uint _sku) {\n    require(items[_sku].itemState == State.Purchased, \"Item needs to be in state 'Purchased'\");\n    _;\n  }\n\n  // Define a modifier that checks if an item.state of a upc is Purchased\n  modifier onlyOriginFarmer(uint _sku) {\n    require(items[_sku].originFarmerID == msg.sender, \"Can be called by origin farmer only\");\n    _;\n  }\n\n  // In the constructor set 'owner' to the address that instantiated the contract\n  // and set 'sku' to 1\n  // and set 'upc' to 1\n  constructor() Ownable() public payable {\n    sku = 1;\n  }\n\n\n\tfunction logItemTransaction(uint _sku, string memory _notes) public {\n\t\tstring[] storage logs = itemsHistory[_sku];\n\t\tlogs.push(_notes);\n\t}\n\n  // Define a function 'harvestItem' that allows a farmer to mark an item 'Harvested'\n  function harvestItem (\n\t\tuint _upc, \n\t\taddress payable _originFarmerID, \n\t\tstring memory _originFarmName, \n\t\tstring memory _originFarmInformation, \n\t\tstring memory _originFarmLatitude, \n\t\tstring memory _originFarmLongitude, \n\t\tstring memory _productNotes\n\t)\n\tonlyFarmer() \n\tpublic returns (uint)\n  {\n\t\trequire(_originFarmerID == msg.sender, \"Sender must be farmer\");\n    Item memory item = Item({\n\t\t\tsku: sku,\n\t\t\tupc: _upc,\n\t\t\townerID: _originFarmerID,\n\t\t\toriginFarmerID: _originFarmerID,\n\t\t\toriginFarmName: _originFarmName,\n\t\t\toriginFarmInformation: _originFarmInformation,\n\t\t\toriginFarmLatitude: _originFarmLatitude,\n\t\t\toriginFarmLongitude: _originFarmLongitude,\n\t\t\tproductNotes: _productNotes,\n\t\t\tproductID: _upc,\n\t\t\tproductPrice: 0,\n\t\t\titemState: State.Harvested,\n\t\t\tdistributorID: address(0),\n\t\t\tretailerID: address(0),\n\t\t\tconsumerID: address(0)\n\t\t});\n\n\t\titems[sku] = item;\n    sku = sku + 1;    // Increment sku\n\t\temit Harvested(item.sku);\n    return item.sku;\n  }\n\n  // Define a function 'processtItem' that allows a farmer to mark an item 'Processed'\n  function processItem(uint _sku) \n\tharvested(_sku)\n\tonlyOriginFarmer(_sku)\n\tpublic \n  {\n    Item storage item = items[_sku];\n\t\titem.itemState = State.Processed;\n    emit Processed(_sku);\n  }\n\n  // Define a function 'packItem' that allows a farmer to mark an item 'Packed'\n  function packItem(uint _sku) public \n\tprocessed(_sku)\n\tonlyOriginFarmer(_sku)\n  {\n    Item storage item = items[_sku];\n\t\titem.itemState = State.Packed;\n    emit Packed(_sku);    \n  }\n\n  // Define a function 'sellItem' that allows a farmer to mark an item 'ForSale'\n  function sellItem(uint _sku, uint _price) public \n  packed(_sku)\n\tonlyOriginFarmer(_sku)\n  {\n\t\tItem storage item = items[_sku];\n\t\titem.itemState = State.ForSale;\n\t\titem.productPrice = _price;\n    emit ForSale(_sku);\n  }\n\n  // Define a function 'buyItem' that allows the disributor to mark an item 'Sold'\n  // Use the above defined modifiers to check if the item is available for sale, if the buyer has paid enough, \n  // and any excess ether sent is refunded back to the buyer\n  function buyItem(uint _sku) public payable \n\tonlyDistributor()\n\tforSale(_sku)\n\tpaidEnough(_sku)\n\tcheckValue(_sku)\n\t{\n    Item storage item = items[_sku];\n\t\titem.itemState = State.Sold;\n\t\titem.ownerID = msg.sender;\n\t\titem.distributorID = msg.sender;\n\t\titem.originFarmerID.transfer(item.productPrice);\n    emit Sold(_sku);\n  }\n\n  // Define a function 'shipItem' that allows the distributor to mark an item 'Shipped'\n  // Use the above modifers to check if the item is sold\n  function shipItem(uint _sku) public \n\tonlyDistributor()\n\tsold(_sku)\n\t{\n    Item storage item = items[_sku];\n\t\titem.itemState = State.Shipped;\n    emit Shipped(_sku);\n  }\n\n  // Define a function 'receiveItem' that allows the retailer to mark an item 'Received'\n  // Use the above modifiers to check if the item is shipped\n  function receiveItem(uint _sku) public \n\tonlyRetailer()\n\tshipped(_sku)\n\t{\n\t\tItem storage item = items[_sku];\n\t\titem.itemState = State.Received;\n\t\titem.ownerID = msg.sender;\n\t\titem.retailerID = msg.sender;\n    emit Received(sku);   \n  }\n\n  // Define a function 'purchaseItem' that allows the consumer to mark an item 'Purchased'\n  // Use the above modifiers to check if the item is received\n  function purchaseItem(uint _sku) public payable\n\tonlyConsumer()\n  received(_sku)\n\tpaidEnough(_sku)\n\tcheckValue(_sku)\n\t{\n\t\tItem storage item = items[_sku];\n\t\titem.itemState = State.Purchased;\n\t\titem.ownerID = msg.sender;\n\t\titem.consumerID = msg.sender;\n    emit Purchased(sku); \n    // Update the appropriate fields - ownerID, consumerID, itemState\n    \n    // Emit the appropriate event\n    \n  }\n\n  // Define a function 'fetchItemBufferOne' that fetches the data\n  function fetchItemBufferOne(uint _sku) public view returns \n  (\n  uint    itemSKU,\n  uint    itemUPC,\n  address ownerID,\n  address originFarmerID,\n  string  memory originFarmName,\n  string  memory originFarmInformation,\n  string  memory originFarmLatitude,\n  string  memory originFarmLongitude\n  ) \n\t{\n\t\tItem memory item = items[_sku];\n\n\t\titemSKU = item.sku;\n\t\titemUPC = item.upc;\n\t\townerID = item.ownerID;\n\t\toriginFarmerID = item.originFarmerID;\n\t\toriginFarmName = item.originFarmName;\n\t\toriginFarmInformation = item.originFarmInformation;\n\t\toriginFarmLatitude = item.originFarmLatitude;\n\t\toriginFarmLongitude = item.originFarmLongitude;\n\t\t\n\t\treturn \n\t\t(\n\t\titemSKU,\n\t\titemUPC,\n\t\townerID,\n\t\toriginFarmerID,\n\t\toriginFarmName,\n\t\toriginFarmInformation,\n\t\toriginFarmLatitude,\n\t\toriginFarmLongitude\n\t\t);\n  }\n\n  // Define a function 'fetchItemBufferTwo' that fetches the data\n  function fetchItemBufferTwo(uint _sku) public view returns \n  (\n\t\tuint    itemSKU,\n\t\tuint    itemUPC,\n\t\tuint    productID,\n\t\tstring  memory productNotes,\n\t\tuint    productPrice,\n\t\tuint    itemState,\n\t\taddress distributorID,\n\t\taddress retailerID,\n\t\taddress consumerID\n\t\t) \n\t{\n\t\t\t// Assign values to the 9 parameters\n\t\tItem memory item = items[_sku];\n\n\t\titemSKU = item.sku;\n\t\titemUPC = item.upc;\n\t\tproductID = item.productID;\n\t\tproductNotes = item.productNotes;\n\t\tproductPrice = item.productPrice;\n\t\titemState = uint(item.itemState);\n\t\tdistributorID = item.distributorID;\n\t\tretailerID = item.retailerID;\n\t\tconsumerID = item.consumerID;\n    \n\t\treturn \n\t\t(\n\t\titemSKU,\n\t\titemUPC,\n\t\tproductID,\n\t\tproductNotes,\n\t\tproductPrice,\n\t\titemState,\n\t\tdistributorID,\n\t\tretailerID,\n\t\tconsumerID\n\t\t);\n  }\n\n\n\tfunction getRoles() public view returns (bool hasFarmerRole, bool hasDistributorRole, bool hasRetailerRole, bool hasConsumerRole) {\n\t\thasFarmerRole = isFarmer(msg.sender) == true;\n\t\thasDistributorRole = isDistributor(msg.sender) == true;\n\t\thasRetailerRole = isRetailer(msg.sender) == true;\n\t\thasConsumerRole = isConsumer(msg.sender) == true;\n\t}\n\n}\n",
  "sourcePath": "/Users/alex/dev/schonetech/blockchain/nd1309-Project-6b-Example-Template/project-6/contracts/coffeebase/SupplyChain.sol",
  "compiler": {
    "name": "solc",
    "version": "0.5.16+commit.9c3226ce.Emscripten.clang"
  },
  "schemaVersion": "3.4.3",
  "updatedAt": "2021-12-01T08:30:58.706Z",
  "networkType": "ethereum",
  "devdoc": {
    "methods": {}
  },
  "userdoc": {
    "methods": {
      "isOwner()": {
        "notice": "Check if the calling address is the owner of the contract"
      },
      "owner()": {
        "notice": "Look up the address of the owner"
      },
      "renounceOwnership()": {
        "notice": "Define a function to renounce ownerhip"
      },
      "transferOwnership(address)": {
        "notice": "Define a public function to transfer ownership"
      }
    }
  }
}